{
  "contractName": "Admin",
  "abi": [
    {
      "inputs": [
        {
          "internalType": "contract RWD",
          "name": "_rwd",
          "type": "address"
        },
        {
          "internalType": "contract Mvp",
          "name": "_mvp",
          "type": "address"
        }
      ],
      "payable": false,
      "stateMutability": "nonpayable",
      "type": "constructor"
    },
    {
      "constant": true,
      "inputs": [
        {
          "internalType": "address",
          "name": "",
          "type": "address"
        }
      ],
      "name": "hasStaked",
      "outputs": [
        {
          "internalType": "bool",
          "name": "",
          "type": "bool"
        }
      ],
      "payable": false,
      "stateMutability": "view",
      "type": "function"
    },
    {
      "constant": true,
      "inputs": [
        {
          "internalType": "address",
          "name": "",
          "type": "address"
        }
      ],
      "name": "isStaking",
      "outputs": [
        {
          "internalType": "bool",
          "name": "",
          "type": "bool"
        }
      ],
      "payable": false,
      "stateMutability": "view",
      "type": "function"
    },
    {
      "constant": true,
      "inputs": [],
      "name": "mvp",
      "outputs": [
        {
          "internalType": "contract Mvp",
          "name": "",
          "type": "address"
        }
      ],
      "payable": false,
      "stateMutability": "view",
      "type": "function"
    },
    {
      "constant": true,
      "inputs": [],
      "name": "name",
      "outputs": [
        {
          "internalType": "string",
          "name": "",
          "type": "string"
        }
      ],
      "payable": false,
      "stateMutability": "view",
      "type": "function"
    },
    {
      "constant": true,
      "inputs": [],
      "name": "owner",
      "outputs": [
        {
          "internalType": "address",
          "name": "",
          "type": "address"
        }
      ],
      "payable": false,
      "stateMutability": "view",
      "type": "function"
    },
    {
      "constant": true,
      "inputs": [],
      "name": "rwd",
      "outputs": [
        {
          "internalType": "contract RWD",
          "name": "",
          "type": "address"
        }
      ],
      "payable": false,
      "stateMutability": "view",
      "type": "function"
    },
    {
      "constant": true,
      "inputs": [
        {
          "internalType": "uint256",
          "name": "",
          "type": "uint256"
        }
      ],
      "name": "stakers",
      "outputs": [
        {
          "internalType": "address",
          "name": "",
          "type": "address"
        }
      ],
      "payable": false,
      "stateMutability": "view",
      "type": "function"
    },
    {
      "constant": true,
      "inputs": [
        {
          "internalType": "address",
          "name": "",
          "type": "address"
        }
      ],
      "name": "stakingBalance",
      "outputs": [
        {
          "internalType": "uint256",
          "name": "",
          "type": "uint256"
        }
      ],
      "payable": false,
      "stateMutability": "view",
      "type": "function"
    },
    {
      "constant": false,
      "inputs": [
        {
          "internalType": "uint256",
          "name": "_amount",
          "type": "uint256"
        }
      ],
      "name": "depositTokens",
      "outputs": [],
      "payable": false,
      "stateMutability": "nonpayable",
      "type": "function"
    },
    {
      "constant": false,
      "inputs": [],
      "name": "unstakeTokens",
      "outputs": [],
      "payable": false,
      "stateMutability": "nonpayable",
      "type": "function"
    },
    {
      "constant": false,
      "inputs": [],
      "name": "issueTokens",
      "outputs": [],
      "payable": false,
      "stateMutability": "nonpayable",
      "type": "function"
    }
  ],
  "bytecode": "0x60806040526040518060400160405280600581526020017f41646d696e0000000000000000000000000000000000000000000000000000008152506000908051906020019061004f929190610164565b5034801561005c57600080fd5b50604051610feb380380610feb8339818101604052604081101561007f57600080fd5b81019080805190602001909291908051906020019092919050505081600360006101000a81548173ffffffffffffffffffffffffffffffffffffffff021916908373ffffffffffffffffffffffffffffffffffffffff16021790555080600260006101000a81548173ffffffffffffffffffffffffffffffffffffffff021916908373ffffffffffffffffffffffffffffffffffffffff16021790555033600160006101000a81548173ffffffffffffffffffffffffffffffffffffffff021916908373ffffffffffffffffffffffffffffffffffffffff1602179055505050610209565b828054600181600116156101000203166002900490600052602060002090601f016020900481019282601f106101a557805160ff19168380011785556101d3565b828001600101855582156101d3579182015b828111156101d25782518255916020019190600101906101b7565b5b5090506101e091906101e4565b5090565b61020691905b808211156102025760008160009055506001016101ea565b5090565b90565b610dd3806102186000396000f3fe608060405234801561001057600080fd5b50600436106100a95760003560e01c80636f49712b116100715780636f49712b146102275780638da5cb5b14610283578063a5ce413b146102cd578063c93c8f34146102d7578063dd49756e14610333578063fd5e6dd114610361576100a9565b806306fdde03146100ae5780631a8972d31461013157806345bc78ab1461017b578063477c729d146101d357806360ab58521461021d575b600080fd5b6100b66103cf565b6040518080602001828103825283818151815260200191508051906020019080838360005b838110156100f65780820151818401526020810190506100db565b50505050905090810190601f1680156101235780820380516001836020036101000a031916815260200191505b509250505060405180910390f35b61013961046d565b604051808273ffffffffffffffffffffffffffffffffffffffff1673ffffffffffffffffffffffffffffffffffffffff16815260200191505060405180910390f35b6101bd6004803603602081101561019157600080fd5b81019080803573ffffffffffffffffffffffffffffffffffffffff169060200190929190505050610493565b6040518082815260200191505060405180910390f35b6101db6104ab565b604051808273ffffffffffffffffffffffffffffffffffffffff1673ffffffffffffffffffffffffffffffffffffffff16815260200191505060405180910390f35b6102256104d1565b005b6102696004803603602081101561023d57600080fd5b81019080803573ffffffffffffffffffffffffffffffffffffffff169060200190929190505050610733565b604051808215151515815260200191505060405180910390f35b61028b610753565b604051808273ffffffffffffffffffffffffffffffffffffffff1673ffffffffffffffffffffffffffffffffffffffff16815260200191505060405180910390f35b6102d5610779565b005b610319600480360360208110156102ed57600080fd5b81019080803573ffffffffffffffffffffffffffffffffffffffff16906020019092919050505061099b565b604051808215151515815260200191505060405180910390f35b61035f6004803603602081101561034957600080fd5b81019080803590602001909291905050506109bb565b005b61038d6004803603602081101561037757600080fd5b8101908080359060200190929190505050610d3a565b604051808273ffffffffffffffffffffffffffffffffffffffff1673ffffffffffffffffffffffffffffffffffffffff16815260200191505060405180910390f35b60008054600181600116156101000203166002900480601f0160208091040260200160405190810160405280929190818152602001828054600181600116156101000203166002900480156104655780601f1061043a57610100808354040283529160200191610465565b820191906000526020600020905b81548152906001019060200180831161044857829003601f168201915b505050505081565b600360009054906101000a900473ffffffffffffffffffffffffffffffffffffffff1681565b60056020528060005260406000206000915090505481565b600260009054906101000a900473ffffffffffffffffffffffffffffffffffffffff1681565b600160009054906101000a900473ffffffffffffffffffffffffffffffffffffffff1673ffffffffffffffffffffffffffffffffffffffff163373ffffffffffffffffffffffffffffffffffffffff1614610594576040517f08c379a00000000000000000000000000000000000000000000000000000000081526004018080602001828103825260198152602001807f2063616c6c6572206d75737420626520746865206f776e65720000000000000081525060200191505060405180910390fd5b60008090505b600480549050811015610730576000600482815481106105b657fe5b9060005260206000200160009054906101000a900473ffffffffffffffffffffffffffffffffffffffff1690506000612710600560008473ffffffffffffffffffffffffffffffffffffffff1673ffffffffffffffffffffffffffffffffffffffff168152602001908152602001600020548161062f57fe5b049050600081111561072157600360009054906101000a900473ffffffffffffffffffffffffffffffffffffffff1673ffffffffffffffffffffffffffffffffffffffff1663a9059cbb83836040518363ffffffff1660e01b8152600401808373ffffffffffffffffffffffffffffffffffffffff1673ffffffffffffffffffffffffffffffffffffffff16815260200182815260200192505050602060405180830381600087803b1580156106e457600080fd5b505af11580156106f8573d6000803e3d6000fd5b505050506040513d602081101561070e57600080fd5b8101908080519060200190929190505050505b5050808060010191505061059a565b50565b60076020528060005260406000206000915054906101000a900460ff1681565b600160009054906101000a900473ffffffffffffffffffffffffffffffffffffffff1681565b6000600560003373ffffffffffffffffffffffffffffffffffffffff1673ffffffffffffffffffffffffffffffffffffffff16815260200190815260200160002054905060008111610816576040517f08c379a0000000000000000000000000000000000000000000000000000000008152600401808060200182810382526028815260200180610d776028913960400191505060405180910390fd5b600260009054906101000a900473ffffffffffffffffffffffffffffffffffffffff1673ffffffffffffffffffffffffffffffffffffffff1663a9059cbb33836040518363ffffffff1660e01b8152600401808373ffffffffffffffffffffffffffffffffffffffff1673ffffffffffffffffffffffffffffffffffffffff16815260200182815260200192505050602060405180830381600087803b1580156108bf57600080fd5b505af11580156108d3573d6000803e3d6000fd5b505050506040513d60208110156108e957600080fd5b8101908080519060200190929190505050506000600560003373ffffffffffffffffffffffffffffffffffffffff1673ffffffffffffffffffffffffffffffffffffffff168152602001908152602001600020819055506000600760003373ffffffffffffffffffffffffffffffffffffffff1673ffffffffffffffffffffffffffffffffffffffff16815260200190815260200160002060006101000a81548160ff02191690831515021790555050565b60066020528060005260406000206000915054906101000a900460ff1681565b60008111610a31576040517f08c379a00000000000000000000000000000000000000000000000000000000081526004018080602001828103825260128152602001807f616d6f756e742063616e6e6f742062652030000000000000000000000000000081525060200191505060405180910390fd5b600260009054906101000a900473ffffffffffffffffffffffffffffffffffffffff1673ffffffffffffffffffffffffffffffffffffffff166323b872dd3330846040518463ffffffff1660e01b8152600401808473ffffffffffffffffffffffffffffffffffffffff1673ffffffffffffffffffffffffffffffffffffffff1681526020018373ffffffffffffffffffffffffffffffffffffffff1673ffffffffffffffffffffffffffffffffffffffff1681526020018281526020019350505050602060405180830381600087803b158015610b0e57600080fd5b505af1158015610b22573d6000803e3d6000fd5b505050506040513d6020811015610b3857600080fd5b81019080805190602001909291905050505080600560003373ffffffffffffffffffffffffffffffffffffffff1673ffffffffffffffffffffffffffffffffffffffff1681526020019081526020016000205401600560003373ffffffffffffffffffffffffffffffffffffffff1673ffffffffffffffffffffffffffffffffffffffff16815260200190815260200160002081905550600660003373ffffffffffffffffffffffffffffffffffffffff1673ffffffffffffffffffffffffffffffffffffffff16815260200190815260200160002060009054906101000a900460ff16610d375760043390806001815401808255809150509060018203906000526020600020016000909192909190916101000a81548173ffffffffffffffffffffffffffffffffffffffff021916908373ffffffffffffffffffffffffffffffffffffffff160217905550506001600760003373ffffffffffffffffffffffffffffffffffffffff1673ffffffffffffffffffffffffffffffffffffffff16815260200190815260200160002060006101000a81548160ff0219169083151502179055506001600660003373ffffffffffffffffffffffffffffffffffffffff1673ffffffffffffffffffffffffffffffffffffffff16815260200190815260200160002060006101000a81548160ff0219169083151502179055505b50565b60048181548110610d4757fe5b906000526020600020016000915054906101000a900473ffffffffffffffffffffffffffffffffffffffff168156fe7374616b696e672062616c616e63652063616e6e6f74206265206c657373207468616e207a65726fa265627a7a72315820b61ba332994b68bf8c45196da4c227432c000fe5438e21c8efefdcbd2fde5e9164736f6c63430005110032",
  "source": "//관리자지갑(은행개념으로 작성하는게 좋을 것 같다. -> 관리자 지갑에서 사용자에게 mvp발생떄마다 지급하기떄문에)\r\npragma solidity ^0.5.0;\r\nimport './RWD.sol';\r\nimport './Mvp.sol';\r\n\r\ncontract Admin{\r\n    string public name = 'Admin';\r\n    address public owner;\r\n    Mvp public mvp;\r\n    RWD public rwd;\r\n\r\n    address[] public stakers;\r\n    \r\n    mapping (address => uint) public stakingBalance;\r\n    mapping(address => bool) public hasStaked;\r\n    mapping(address => bool) public isStaking;\r\n\r\n    constructor(RWD _rwd, Mvp _mvp) public {\r\n        rwd = _rwd;\r\n        mvp = _mvp;\r\n        owner = msg.sender;\r\n    }\r\n\r\n    // staking function\r\n    function depositTokens(uint _amount) public {\r\n        //require staking amount to be greater than zero\r\n        require(_amount > 0,'amount cannot be 0');\r\n\r\n        //Transfer tether tokens to this contract address for staking\r\n        mvp.transferFrom(msg.sender, address(this), _amount);\r\n\r\n        //Update StakingBalance\r\n        stakingBalance[msg.sender] = stakingBalance[msg.sender] + _amount;\r\n\r\n        if(!hasStaked[msg.sender]){\r\n            stakers.push(msg.sender);\r\n\r\n            //Update Staking Balance\r\n            isStaking[msg.sender] = true;\r\n            hasStaked[msg.sender] = true;\r\n        }\r\n    }\r\n\r\n    //unstake tokens\r\n    function unstakeTokens() public {\r\n        uint balance = stakingBalance[msg.sender]; \r\n        // require the amoount to be greater zero        \r\n        require(balance > 0, 'staking balance cannot be less than zero');\r\n\r\n        //transfer the tokens to the sepecified contract address from our bank.\r\n        mvp.transfer(msg.sender, balance);\r\n        \r\n        // reset staking balance\r\n        stakingBalance[msg.sender] = 0;\r\n        \r\n        //Update Staking Status\r\n        isStaking[msg.sender] = false;\r\n    }\r\n\r\n    //issue rewards\r\n    function issueTokens() public {\r\n        //require the owner to issue tokens only\r\n        require(msg.sender == owner, ' caller must be the owner');\r\n\r\n        for (uint i=0; i<stakers.length; i++){\r\n            address recipient = stakers[i];\r\n            // 10000 to create percentage incentive for stakers\r\n            uint balance = stakingBalance[recipient] / 10000; \r\n    \r\n            if(balance >0){\r\n            rwd.transfer(recipient, balance); \r\n            }\r\n        }\r\n    }\r\n}",
  "sourcePath": "C:\\DAppWorkSpace\\blockchain\\src\\contracts\\Admin.sol",
  "compiler": {
    "name": "solc",
    "version": "0.5.17+commit.d19bba13.Emscripten.clang"
  },
  "schemaVersion": "3.4.16",
  "updatedAt": "2023-11-08T20:12:33.555Z",
  "networkType": "ethereum",
  "devdoc": {
    "methods": {}
  },
  "userdoc": {
    "methods": {}
  }
}